:100000000C9471000C9499000C9499000C94990034
:100010000C9499000C9499000C9499000C949900FC
:100020000C9499000C9499000C9499000C949900EC
:100030000C9499000C9499000C9499000C949900DC
:100040000C9486030C9499000C94F6030C94D00342
:100050000C9499000C9499000C9499000C949900BC
:100060000C9499000C94990007634236B79BD8A76B
:100070001A39685618AEBAAB558C1D3CB7CC5763CD
:10008000BD6DEDFD753EF6177231BF000000803F7B
:100090000000000800020100000304070000000047
:1000A0000000000000000000250028002B000000D8
:1000B0000000240027002A000404040404040404AB
:1000C0000202020202020303030303030102040803
:1000D00010204080010204081020010204081020B2
:1000E000DC0411241FBECFEFD8E0DEBFCDBF11E08E
:1000F000A0E0B1E0ECEAF0E102C005900D92A6317B
:10010000B107D9F721E0A6E1B1E001C01D92AC3BF7
:10011000B207E1F710E0C1E7D0E004C02197FE018B
:100120000E944908C037D107C9F70E9428040C94DF
:1001300054080C940000E7EDF0E02491E3ECF0E0CB
:100140008491882399F090E0880F991FFC01E25573
:10015000FF4FA591B491FC01EC55FF4F859194910F
:100160008FB7F894EC91E22BEC938FBF0895EBE9F5
:10017000F0E02491E7EDF0E09491E3ECF0E0E4911D
:10018000EE2309F43BC0222339F1233091F038F4F7
:100190002130A9F0223001F524B52F7D12C027307F
:1001A00091F02830A1F02430B9F4209180002F7D07
:1001B00003C0209180002F77209380000DC024B5CC
:1001C0002F7724BD09C02091B0002F7703C0209164
:1001D000B0002F7D2093B000F0E0EE0FFF1FEC5534
:1001E000FF4FA591B4912FB7F894EC91811103C002
:1001F00090959E2301C09E2B9C932FBF0895CF9373
:10020000DF93EC010E949B00209711F480E004C072
:10021000CF3FD10529F481E0DF91CF910C94B70055
:10022000EBE9F0E0E491E330F9F048F4E130B9F0C3
:10023000E230A1F584B5806284BDC8BD34C0E7302A
:10024000E9F0E83019F1E43049F5809180008062EE
:1002500080938000D0938B00C0938A0024C084B523
:10026000806884BDC7BD1FC0809180008068809376
:100270008000D0938900C093880015C08091B000A1
:1002800080688093B000C093B3000DC08091B0002F
:1002900080628093B000C093B40005C0C038D1051F
:1002A0000CF0B9CFB3CFDF91CF9108953FB7F89459
:1002B00080911B0190911C01A0911D01B0911E0124
:1002C00026B5A89B05C02F3F19F00196A11DB11DB1
:1002D0003FBFBA2FA92F982F8827820F911DA11DEC
:1002E000B11DBC01CD0142E0660F771F881F991F29
:1002F0004A95D1F708958F929F92AF92BF92CF9275
:10030000DF92EF92FF920E9456014B015C018AE05E
:10031000C82ED12CE12CF12C0E945601DC01CB011E
:1003200088199909AA09BB09883E9340A105B1051E
:1003300058F021E0C21AD108E108F10888EE880ED1
:1003400083E0981EA11CB11CC114D104E104F10486
:1003500019F7FF90EF90DF90CF90BF90AF909F90F4
:100360008F900895CF92DF92EF92FF920F931F9399
:10037000CF93DF936C017A018B01C0E0D0E0CE1502
:10038000DF0589F0D8016D918D01D601ED91FC91C9
:100390000190F081E02DC6010995892B11F47E01B1
:1003A00002C02196ECCFC701DF91CF911F910F9131
:1003B000FF90EF90DF90CF900895089580E090E057
:1003C0000895FC01538D448D252F30E0842F90E05B
:1003D000821B930B541710F0CF9608950197089540
:1003E000FC01918D828D981761F0828DDF01A80F3D
:1003F000B11D5D968C91928D9F5F9F73928F90E05F
:1004000008958FEF9FEF0895FC01918D828D9817CD
:1004100031F0828DE80FF11D858D90E008958FEF0A
:100420009FEF0895FC01918D228D892F90E0805CD3
:100430009F4F821B91098F73992708958FE191E057
:100440000E94120221E0892B09F420E0822F0895F6
:10045000FC01848DDF01A80FB11DA35ABF4F2C9161
:10046000848D90E001968F739927848FA689B78930
:100470002C93A089B1898C9180648C93938D848D09
:10048000981306C00288F389E02D80818F7D8083D8
:100490000895EF92FF920F931F93CF93DF93EC0198
:1004A00081E0888F9B8D8C8D981305C0E889F98930
:1004B000808185FD24C0F62E0B8D10E00F5F1F4F4D
:1004C0000F731127E02E8C8DE8120CC00FB607FCBD
:1004D000FACFE889F989808185FFF5CFCE010E94A6
:1004E0002802F1CF8B8DFE01E80FF11DE35AFF4F7B
:1004F000F0820B8FEA89FB898081806207C0EE89D8
:10050000FF896083E889F98980818064808381E044
:1005100090E0DF91CF911F910F91FF90EF900895A0
:10052000CF93DF93EC01888D8823C9F0EA89FB899A
:10053000808185FD05C0A889B9898C9186FD0FC091
:100540000FB607FCF5CF808185FFF2CFA889B98966
:100550008C9185FFEDCFCE010E942802E7CFDF917D
:10056000CF91089580E090E0892B29F00E941E022F
:1005700081110C94000008958F929F92AF92BF92C8
:100580000F931F93CF93DF93CDB7DEB7A1970FB62D
:10059000F894DEBF0FBECDBF19A2423008F44AE086
:1005A0008E010F5D1F4F842E912CA12CB12CA50123
:1005B00094010E942708E62FB901CA0101501109D0
:1005C000EA3014F4E05D01C0E95CD801EC93232B20
:1005D000242B252B61F70115110571F0F80101900D
:1005E0000020E9F73197AF01401B510BB8018FE1B3
:1005F00091E00E94B20102C080E090E0A1960FB6A7
:10060000F894DEBF0FBECDBFDF91CF911F910F9148
:10061000BF90AF909F908F900895CF92DF92EF920E
:10062000FF92CF93DF936C01990FEE08FF08F7FE5E
:100630001AC0E0911F01F09120010190F081E02D9E
:100640006DE28FE191E00995EC0166277727CB01F8
:100650006C197D098E099F094AE00E94BC027C0149
:10066000EC0EFD1E06C04AE0C701B6010E94BC02A6
:100670007C0142E050E062E171E08FE191E00E9494
:10068000B2018E0D9F1DDF91CF91FF90EF90DF9013
:10069000CF9008950E944F08CF92DF92EF92FF9281
:1006A0009B01AC0160E070E080E89FE30E940905D7
:1006B00028E032E541EB50E40E9488079B01AC0141
:1006C00068E072E581EB90E40E9409050E94F00564
:1006D0006B017C0120E030E0A9010E940D0720E0C1
:1006E00030E040E05FE387FD05C0C701B6010E942E
:1006F0000A0504C0C701B6010E9409050E9422062E
:10070000CB01FF90EF90DF90CF9008951F920F9252
:100710000FB60F9211242F933F938F939F93AF9314
:10072000BF938091170190911801A0911901B09188
:100730001A013091160123E0230F2D3720F4019682
:10074000A11DB11D05C026E8230F0296A11DB11DF4
:10075000209316018093170190931801A09319011B
:10076000B0931A0180911B0190911C01A0911D0171
:10077000B0911E010196A11DB11D80931B019093A4
:100780001C01A0931D01B0931E01BF91AF919F91D9
:100790008F913F912F910F900FBE0F901F90189542
:1007A0001F920F920FB60F9211242F933F934F93E6
:1007B0005F936F937F938F939F93AF93BF93EF93C9
:1007C000FF938FE191E00E942802FF91EF91BF918A
:1007D000AF919F918F917F916F915F914F913F91D9
:1007E0002F910F900FBE0F901F9018951F920F9290
:1007F0000FB60F9211242F938F939F93EF93FF9334
:10080000E0912F01F09130018081E0913501F0916C
:10081000360182FD12C09081809138018F5F8F7305
:1008200020913901821751F0E0913801F0E0E15E4A
:10083000FE4F958F8093380101C08081FF91EF9129
:100840009F918F912F910F900FBE0F901F90189531
:10085000789484B5826084BD84B5816084BD85B59B
:10086000826085BD85B5816085BD80916E008160A7
:1008700080936E001092810080918100826080934D
:10088000810080918100816080938100809180004F
:100890008160809380008091B10084608093B1007A
:1008A0008091B00081608093B00080917A00846074
:1008B00080937A0080917A00826080937A008091A0
:1008C0007A00816080937A0080917A0080688093BA
:1008D0007A001092C100E0912F01F091300182E086
:1008E0008083E0912B01F0912C011082E0912D0189
:1008F000F0912E018FEC808310923701E09133014B
:10090000F091340186E08083E0913101F091320171
:10091000808180618083E0913101F091320180819A
:1009200088608083E0913101F0913201808180689C
:100930008083E0913101F091320180818F7D80834D
:100940000E949B00C0E0D0E0BE010D2E000C880B81
:10095000990B0E945A0620E030E04FE753E40E94D2
:1009600076050E944C030E94FF00CE010E940D03F9
:100970000E947B012196C11581E0D80729F7CFEFAE
:10098000D0E0BE010D2E000C880B990B0E945A0678
:1009900020E030E04FE753E40E9476050E944C03CC
:1009A0000E94FF00CE010E940D030E947B0121974F
:1009B00041F70E94B202C6CFEFE1F1E0138212824A
:1009C00088EE93E0A0E0B0E084839583A683B783AC
:1009D00084E091E09183808385EC90E09587848723
:1009E00084EC90E09787868780EC90E0918B808BF9
:1009F00081EC90E0938B828B82EC90E0958B848BE2
:100A000086EC90E0978B868B118E128E138E148E4F
:100A100008955058BB27AA270E9421050C94D3069D
:100A20000E94C50638F00E94CC0620F039F49F3FA2
:100A300019F426F40C949B060EF4E095E7FB0C9455
:100A40009506E92F0E94E40658F3BA176207730768
:100A50008407950720F079F4A6F50C9406070EF4A8
:100A6000E0950B2EBA2FA02D0B01B90190010C01BE
:100A7000CA01A0011124FF27591B99F0593F50F4D6
:100A8000503E68F11A16F040A22F232F342F44272E
:100A9000585FF3CF469537952795A795F040539526
:100AA000C9F77EF41F16BA0B620B730B840BBAF0F6
:100AB0009150A1F0FF0FBB1F661F771F881FC2F761
:100AC0000EC0BA0F621F731F841F48F48795779575
:100AD0006795B795F7959E3F08F0B0CF9395880F2F
:100AE00008F09927EE0F9795879508950E948A053B
:100AF0000C94D3060E94CC0658F00E94C50640F024
:100B000029F45F3F29F00C94950651110C940707C6
:100B10000C949B060E94E40668F39923B1F35523D5
:100B200091F3951B550BBB27AA2762177307840700
:100B300038F09F5F5F4F220F331F441FAA1FA9F396
:100B400035D00E2E3AF0E0E832D091505040E69584
:100B5000001CCAF72BD0FE2F29D0660F771F881FE5
:100B6000BB1F261737074807AB07B0E809F0BB0BD8
:100B7000802DBF01FF2793585F4F3AF09E3F5105EC
:100B800078F00C9495060C9407075F3FE4F3983EC9
:100B9000D4F3869577956795B795F7959F5FC9F7D5
:100BA000880F911D9695879597F90895E1E0660F56
:100BB000771F881FBB1F621773078407BA0720F0CF
:100BC000621B730B840BBA0BEE1F88F7E095089538
:100BD00029F416F00C9495060C9406070C949B06C9
:100BE0000E94EC06A8F39638A0F707F80F92E89455
:100BF0002BE33AEA48EB5FE70E949E070F920F92C1
:100C00000F924DB75EB70F920E945407E8E6F0E0EE
:100C10000E949E064F915F91EF91FF91E595EE1F27
:100C2000FF1F49F0FE57E0684427EE0F441FFA9576
:100C3000E1F74195550B0E941E070F9007FE0C949B
:100C4000120708950E9429066894B1110C940707B1
:100C500008950E94EC0688F09F5798F0B92F9927C5
:100C6000B751B0F0E1F0660F771F881F991F1AF097
:100C7000BA95C9F714C0B13091F00E940607B1E0EF
:100C800008950C940607672F782F8827B85F39F0EE
:100C9000B93FCCF3869577956795B395D9F73EF430
:100CA00090958095709561957F4F8F4F9F4F0895D8
:100CB000E89409C097FB3EF49095809570956195F6
:100CC0007F4F8F4F9F4F9923A9F0F92F96E9BB27AC
:100CD0009395F695879577956795B795F111F8CF28
:100CE000FAF4BB0F11F460FF1BC06F5F7F4F8F4F93
:100CF0009F4F16C0882311F096E911C0772321F089
:100D00009EE8872F762F05C0662371F096E8862F20
:100D100070E060E02AF09A95660F771F881FDAF777
:100D2000880F9695879597F9089597F99F6780E8BA
:100D300070E060E008959FEF80EC0895DF93CF931B
:100D40001F930F93FF92EF92DF927B018C016894C7
:100D500006C0DA2EEF010E949B07FE01E894A591E0
:100D60002591359145915591A6F3EF010E942105FA
:100D7000FE019701A801DA9469F7DF90EF90FF90E8
:100D80000F911F91CF91DF91089500240A941616B8
:100D9000170618060906089500240A941216130669
:100DA000140605060895092E0394000C11F48823F7
:100DB00052F0BB0F40F4BF2B11F460FF04C06F5F13
:100DC0007F4F8F4F9F4F089557FD9058440F551FE9
:100DD00059F05F3F71F04795880F97FB991F61F0BD
:100DE0009F3F79F087950895121613061406551F34
:100DF000F2CF4695F1DF08C0161617061806991FA0
:100E0000F1CF86957105610508940895E894BB2794
:100E100066277727CB0197F908950E94F50708F414
:100E20008FEF08959B01AC0160E070E080E89FE3E4
:100E30000C9476050C9495060C9419080E94EC0607
:100E4000D8F39923C9F3940F511DA3F39150504047
:100E500094F059F0882332F0660F771F881F915065
:100E60005040C1F79E3F51052CF7880F911D969574
:100E7000879597F908955F3FACF0983E9CF0BB27AB
:100E8000869577956795B79508F4B1609395C1F706
:100E9000BB0F58F711F460FFE8CF6F5F7F4F8F4FA4
:100EA0009F4FE3CF0C940707FA01DC01AA0FBB1F89
:100EB0009B01AC01BF5728F42227332744275078E1
:100EC00020C0B75190F4AB2F002446953795279555
:100ED000011CA395D2F3002071F0220F331F441F91
:100EE000B395DAF30ED00C94090561307105A0E8D2
:100EF0008A07B94630F49B01AC016627772788271B
:100F00009078309621F02083318342835383089573
:100F10000E949B070C94D3060E94C50638F00E94DD
:100F2000CC0620F0952311F00C9495060C949B06AA
:100F300011240C9407070E94E40670F3959FC1F3F7
:100F4000950F50E0551F629FF001729FBB27F00D77
:100F5000B11D639FAA27F00DB11DAA1F649F6627CC
:100F6000B00DA11D661F829F2227B00DA11D621F1B
:100F7000739FB00DA11D621F839FA00D611D221FD5
:100F8000749F3327A00D611D231F849F600D211DB9
:100F9000822F762F6A2F11249F5750409AF0F1F03C
:100FA00088234AF0EE0FFF1FBB1F661F771F881FA5
:100FB00091505040A9F79E3F510580F00C94950642
:100FC0000C9407075F3FE4F3983ED4F3869577953A
:100FD0006795B795F795E7959F5FC1F7FE2B880F4B
:100FE000911D9695879597F90895990F0008550FCB
:100FF000AA0BE0E8FEEF16161706E807F907C0F09F
:1010000012161306E407F50798F0621B730B840BA6
:10101000950B39F40A2661F0232B242B252B21F480
:1010200008950A2609F4A140A6958FEF811D811D20
:1010300008959F3F31F0915020F4879577956795FB
:10104000B795880F911D9695879597F90895A1E218
:101050001A2EAA1BBB1BFD010DC0AA1FBB1FEE1F32
:10106000FF1FA217B307E407F50720F0A21BB30B7D
:10107000E40BF50B661F771F881F991F1A9469F7F9
:1010800060957095809590959B01AC01BD01CF0155
:101090000895EE0FFF1F0590F491E02D099481E073
:0C10A00090E0F8940C945408F894FFCFF2
:1010AC00000000004902B201E10190021202F001BD
:0610BC0004020D0A000011
:00000001FF
